{
	"data": {
		"bytecode": {
			"linkReferences": {},
			"object": "608060405234801561001057600080fd5b50336000806101000a81548173ffffffffffffffffffffffffffffffffffffffff021916908373ffffffffffffffffffffffffffffffffffffffff160217905550610aad806100606000396000f3fe608060405234801561001057600080fd5b50600436106100365760003560e01c80633630a4551461003b578063531c7c3214610059575b600080fd5b610043610075565b6040516100509190610421565b60405180910390f35b610073600480360381019061006e91906105b8565b61008c565b005b606060006001805490501161008957600080fd5b90565b60008054906101000a900473ffffffffffffffffffffffffffffffffffffffff1673ffffffffffffffffffffffffffffffffffffffff163373ffffffffffffffffffffffffffffffffffffffff161461011a576040517f08c379a0000000000000000000000000000000000000000000000000000000008152600401610111906106b4565b60405180910390fd5b836001858154811061012f5761012e6106d4565b5b90600052602060002090600402016001015403610181576040517f08c379a00000000000000000000000000000000000000000000000000000000081526004016101789061074f565b60405180910390fd5b6001604051806080016040528085815260200186815260200184815260200183815250908060018154018082558091505060019003906000526020600020906004020160009091909190915060008201518160000190816101e2919061097b565b50602082015181600101556040820151816002019081610202919061097b565b506060820151816003015550507f7b244afbade88f14ffe00252804b1465253195836e50dede3f68c1c7996ba5b74260405161023e9190610a5c565b60405180910390a150505050565b600081519050919050565b600082825260208201905092915050565b6000819050602082019050919050565b600081519050919050565b600082825260208201905092915050565b60005b838110156102b2578082015181840152602081019050610297565b60008484015250505050565b6000601f19601f8301169050919050565b60006102da82610278565b6102e48185610283565b93506102f4818560208601610294565b6102fd816102be565b840191505092915050565b6000819050919050565b61031b81610308565b82525050565b6000608083016000830151848203600086015261033e82826102cf565b91505060208301516103536020860182610312565b506040830151848203604086015261036b82826102cf565b91505060608301516103806060860182610312565b508091505092915050565b60006103978383610321565b905092915050565b6000602082019050919050565b60006103b78261024c565b6103c18185610257565b9350836020820285016103d385610268565b8060005b8581101561040f57848403895281516103f0858261038b565b94506103fb8361039f565b925060208a019950506001810190506103d7565b50829750879550505050505092915050565b6000602082019050818103600083015261043b81846103ac565b905092915050565b6000604051905090565b600080fd5b600080fd5b61046081610308565b811461046b57600080fd5b50565b60008135905061047d81610457565b92915050565b600080fd5b600080fd5b7f4e487b7100000000000000000000000000000000000000000000000000000000600052604160045260246000fd5b6104c5826102be565b810181811067ffffffffffffffff821117156104e4576104e361048d565b5b80604052505050565b60006104f7610443565b905061050382826104bc565b919050565b600067ffffffffffffffff8211156105235761052261048d565b5b61052c826102be565b9050602081019050919050565b82818337600083830152505050565b600061055b61055684610508565b6104ed565b90508281526020810184848401111561057757610576610488565b5b610582848285610539565b509392505050565b600082601f83011261059f5761059e610483565b5b81356105af848260208601610548565b91505092915050565b600080600080608085870312156105d2576105d161044d565b5b60006105e08782880161046e565b945050602085013567ffffffffffffffff81111561060157610600610452565b5b61060d8782880161058a565b935050604085013567ffffffffffffffff81111561062e5761062d610452565b5b61063a8782880161058a565b925050606061064b8782880161046e565b91505092959194509250565b600082825260208201905092915050565b7f596f7520617265206e6f742061646d696e212100000000000000000000000000600082015250565b600061069e601383610657565b91506106a982610668565b602082019050919050565b600060208201905081810360008301526106cd81610691565b9050919050565b7f4e487b7100000000000000000000000000000000000000000000000000000000600052603260045260246000fd5b7f53747564656e7420416c72656164792045786973747300000000000000000000600082015250565b6000610739601683610657565b915061074482610703565b602082019050919050565b600060208201905081810360008301526107688161072c565b9050919050565b7f4e487b7100000000000000000000000000000000000000000000000000000000600052602260045260246000fd5b600060028204905060018216806107b657607f821691505b6020821081036107c9576107c861076f565b5b50919050565b60008190508160005260206000209050919050565b60006020601f8301049050919050565b600082821b905092915050565b6000600883026108317fffffffffffffffffffffffffffffffffffffffffffffffffffffffffffffffff826107f4565b61083b86836107f4565b95508019841693508086168417925050509392505050565b6000819050919050565b600061087861087361086e84610308565b610853565b610308565b9050919050565b6000819050919050565b6108928361085d565b6108a661089e8261087f565b848454610801565b825550505050565b600090565b6108bb6108ae565b6108c6818484610889565b505050565b5b818110156108ea576108df6000826108b3565b6001810190506108cc565b5050565b601f82111561092f57610900816107cf565b610909846107e4565b81016020851015610918578190505b61092c610924856107e4565b8301826108cb565b50505b505050565b600082821c905092915050565b600061095260001984600802610934565b1980831691505092915050565b600061096b8383610941565b9150826002028217905092915050565b61098482610278565b67ffffffffffffffff81111561099d5761099c61048d565b5b6109a7825461079e565b6109b28282856108ee565b600060209050601f8311600181146109e557600084156109d3578287015190505b6109dd858261095f565b865550610a45565b601f1984166109f3866107cf565b60005b82811015610a1b578489015182556001820191506020850194506020810190506109f6565b86831015610a385784890151610a34601f891682610941565b8355505b6001600288020188555050505b505050505050565b610a5681610308565b82525050565b6000602082019050610a716000830184610a4d565b9291505056fea2646970667358221220615f650966832e456439fa0c08e9e59ed4066b78f64d106d6fbb8830ee994ead64736f6c63430008120033",
			"opcodes": "PUSH1 0x80 PUSH1 0x40 MSTORE CALLVALUE DUP1 ISZERO PUSH2 0x10 JUMPI PUSH1 0x0 DUP1 REVERT JUMPDEST POP CALLER PUSH1 0x0 DUP1 PUSH2 0x100 EXP DUP2 SLOAD DUP2 PUSH20 0xFFFFFFFFFFFFFFFFFFFFFFFFFFFFFFFFFFFFFFFF MUL NOT AND SWAP1 DUP4 PUSH20 0xFFFFFFFFFFFFFFFFFFFFFFFFFFFFFFFFFFFFFFFF AND MUL OR SWAP1 SSTORE POP PUSH2 0xAAD DUP1 PUSH2 0x60 PUSH1 0x0 CODECOPY PUSH1 0x0 RETURN INVALID PUSH1 0x80 PUSH1 0x40 MSTORE CALLVALUE DUP1 ISZERO PUSH2 0x10 JUMPI PUSH1 0x0 DUP1 REVERT JUMPDEST POP PUSH1 0x4 CALLDATASIZE LT PUSH2 0x36 JUMPI PUSH1 0x0 CALLDATALOAD PUSH1 0xE0 SHR DUP1 PUSH4 0x3630A455 EQ PUSH2 0x3B JUMPI DUP1 PUSH4 0x531C7C32 EQ PUSH2 0x59 JUMPI JUMPDEST PUSH1 0x0 DUP1 REVERT JUMPDEST PUSH2 0x43 PUSH2 0x75 JUMP JUMPDEST PUSH1 0x40 MLOAD PUSH2 0x50 SWAP2 SWAP1 PUSH2 0x421 JUMP JUMPDEST PUSH1 0x40 MLOAD DUP1 SWAP2 SUB SWAP1 RETURN JUMPDEST PUSH2 0x73 PUSH1 0x4 DUP1 CALLDATASIZE SUB DUP2 ADD SWAP1 PUSH2 0x6E SWAP2 SWAP1 PUSH2 0x5B8 JUMP JUMPDEST PUSH2 0x8C JUMP JUMPDEST STOP JUMPDEST PUSH1 0x60 PUSH1 0x0 PUSH1 0x1 DUP1 SLOAD SWAP1 POP GT PUSH2 0x89 JUMPI PUSH1 0x0 DUP1 REVERT JUMPDEST SWAP1 JUMP JUMPDEST PUSH1 0x0 DUP1 SLOAD SWAP1 PUSH2 0x100 EXP SWAP1 DIV PUSH20 0xFFFFFFFFFFFFFFFFFFFFFFFFFFFFFFFFFFFFFFFF AND PUSH20 0xFFFFFFFFFFFFFFFFFFFFFFFFFFFFFFFFFFFFFFFF AND CALLER PUSH20 0xFFFFFFFFFFFFFFFFFFFFFFFFFFFFFFFFFFFFFFFF AND EQ PUSH2 0x11A JUMPI PUSH1 0x40 MLOAD PUSH32 0x8C379A000000000000000000000000000000000000000000000000000000000 DUP2 MSTORE PUSH1 0x4 ADD PUSH2 0x111 SWAP1 PUSH2 0x6B4 JUMP JUMPDEST PUSH1 0x40 MLOAD DUP1 SWAP2 SUB SWAP1 REVERT JUMPDEST DUP4 PUSH1 0x1 DUP6 DUP2 SLOAD DUP2 LT PUSH2 0x12F JUMPI PUSH2 0x12E PUSH2 0x6D4 JUMP JUMPDEST JUMPDEST SWAP1 PUSH1 0x0 MSTORE PUSH1 0x20 PUSH1 0x0 KECCAK256 SWAP1 PUSH1 0x4 MUL ADD PUSH1 0x1 ADD SLOAD SUB PUSH2 0x181 JUMPI PUSH1 0x40 MLOAD PUSH32 0x8C379A000000000000000000000000000000000000000000000000000000000 DUP2 MSTORE PUSH1 0x4 ADD PUSH2 0x178 SWAP1 PUSH2 0x74F JUMP JUMPDEST PUSH1 0x40 MLOAD DUP1 SWAP2 SUB SWAP1 REVERT JUMPDEST PUSH1 0x1 PUSH1 0x40 MLOAD DUP1 PUSH1 0x80 ADD PUSH1 0x40 MSTORE DUP1 DUP6 DUP2 MSTORE PUSH1 0x20 ADD DUP7 DUP2 MSTORE PUSH1 0x20 ADD DUP5 DUP2 MSTORE PUSH1 0x20 ADD DUP4 DUP2 MSTORE POP SWAP1 DUP1 PUSH1 0x1 DUP2 SLOAD ADD DUP1 DUP3 SSTORE DUP1 SWAP2 POP POP PUSH1 0x1 SWAP1 SUB SWAP1 PUSH1 0x0 MSTORE PUSH1 0x20 PUSH1 0x0 KECCAK256 SWAP1 PUSH1 0x4 MUL ADD PUSH1 0x0 SWAP1 SWAP2 SWAP1 SWAP2 SWAP1 SWAP2 POP PUSH1 0x0 DUP3 ADD MLOAD DUP2 PUSH1 0x0 ADD SWAP1 DUP2 PUSH2 0x1E2 SWAP2 SWAP1 PUSH2 0x97B JUMP JUMPDEST POP PUSH1 0x20 DUP3 ADD MLOAD DUP2 PUSH1 0x1 ADD SSTORE PUSH1 0x40 DUP3 ADD MLOAD DUP2 PUSH1 0x2 ADD SWAP1 DUP2 PUSH2 0x202 SWAP2 SWAP1 PUSH2 0x97B JUMP JUMPDEST POP PUSH1 0x60 DUP3 ADD MLOAD DUP2 PUSH1 0x3 ADD SSTORE POP POP PUSH32 0x7B244AFBADE88F14FFE00252804B1465253195836E50DEDE3F68C1C7996BA5B7 TIMESTAMP PUSH1 0x40 MLOAD PUSH2 0x23E SWAP2 SWAP1 PUSH2 0xA5C JUMP JUMPDEST PUSH1 0x40 MLOAD DUP1 SWAP2 SUB SWAP1 LOG1 POP POP POP POP JUMP JUMPDEST PUSH1 0x0 DUP2 MLOAD SWAP1 POP SWAP2 SWAP1 POP JUMP JUMPDEST PUSH1 0x0 DUP3 DUP3 MSTORE PUSH1 0x20 DUP3 ADD SWAP1 POP SWAP3 SWAP2 POP POP JUMP JUMPDEST PUSH1 0x0 DUP2 SWAP1 POP PUSH1 0x20 DUP3 ADD SWAP1 POP SWAP2 SWAP1 POP JUMP JUMPDEST PUSH1 0x0 DUP2 MLOAD SWAP1 POP SWAP2 SWAP1 POP JUMP JUMPDEST PUSH1 0x0 DUP3 DUP3 MSTORE PUSH1 0x20 DUP3 ADD SWAP1 POP SWAP3 SWAP2 POP POP JUMP JUMPDEST PUSH1 0x0 JUMPDEST DUP4 DUP2 LT ISZERO PUSH2 0x2B2 JUMPI DUP1 DUP3 ADD MLOAD DUP2 DUP5 ADD MSTORE PUSH1 0x20 DUP2 ADD SWAP1 POP PUSH2 0x297 JUMP JUMPDEST PUSH1 0x0 DUP5 DUP5 ADD MSTORE POP POP POP POP JUMP JUMPDEST PUSH1 0x0 PUSH1 0x1F NOT PUSH1 0x1F DUP4 ADD AND SWAP1 POP SWAP2 SWAP1 POP JUMP JUMPDEST PUSH1 0x0 PUSH2 0x2DA DUP3 PUSH2 0x278 JUMP JUMPDEST PUSH2 0x2E4 DUP2 DUP6 PUSH2 0x283 JUMP JUMPDEST SWAP4 POP PUSH2 0x2F4 DUP2 DUP6 PUSH1 0x20 DUP7 ADD PUSH2 0x294 JUMP JUMPDEST PUSH2 0x2FD DUP2 PUSH2 0x2BE JUMP JUMPDEST DUP5 ADD SWAP2 POP POP SWAP3 SWAP2 POP POP JUMP JUMPDEST PUSH1 0x0 DUP2 SWAP1 POP SWAP2 SWAP1 POP JUMP JUMPDEST PUSH2 0x31B DUP2 PUSH2 0x308 JUMP JUMPDEST DUP3 MSTORE POP POP JUMP JUMPDEST PUSH1 0x0 PUSH1 0x80 DUP4 ADD PUSH1 0x0 DUP4 ADD MLOAD DUP5 DUP3 SUB PUSH1 0x0 DUP7 ADD MSTORE PUSH2 0x33E DUP3 DUP3 PUSH2 0x2CF JUMP JUMPDEST SWAP2 POP POP PUSH1 0x20 DUP4 ADD MLOAD PUSH2 0x353 PUSH1 0x20 DUP7 ADD DUP3 PUSH2 0x312 JUMP JUMPDEST POP PUSH1 0x40 DUP4 ADD MLOAD DUP5 DUP3 SUB PUSH1 0x40 DUP7 ADD MSTORE PUSH2 0x36B DUP3 DUP3 PUSH2 0x2CF JUMP JUMPDEST SWAP2 POP POP PUSH1 0x60 DUP4 ADD MLOAD PUSH2 0x380 PUSH1 0x60 DUP7 ADD DUP3 PUSH2 0x312 JUMP JUMPDEST POP DUP1 SWAP2 POP POP SWAP3 SWAP2 POP POP JUMP JUMPDEST PUSH1 0x0 PUSH2 0x397 DUP4 DUP4 PUSH2 0x321 JUMP JUMPDEST SWAP1 POP SWAP3 SWAP2 POP POP JUMP JUMPDEST PUSH1 0x0 PUSH1 0x20 DUP3 ADD SWAP1 POP SWAP2 SWAP1 POP JUMP JUMPDEST PUSH1 0x0 PUSH2 0x3B7 DUP3 PUSH2 0x24C JUMP JUMPDEST PUSH2 0x3C1 DUP2 DUP6 PUSH2 0x257 JUMP JUMPDEST SWAP4 POP DUP4 PUSH1 0x20 DUP3 MUL DUP6 ADD PUSH2 0x3D3 DUP6 PUSH2 0x268 JUMP JUMPDEST DUP1 PUSH1 0x0 JUMPDEST DUP6 DUP2 LT ISZERO PUSH2 0x40F JUMPI DUP5 DUP5 SUB DUP10 MSTORE DUP2 MLOAD PUSH2 0x3F0 DUP6 DUP3 PUSH2 0x38B JUMP JUMPDEST SWAP5 POP PUSH2 0x3FB DUP4 PUSH2 0x39F JUMP JUMPDEST SWAP3 POP PUSH1 0x20 DUP11 ADD SWAP10 POP POP PUSH1 0x1 DUP2 ADD SWAP1 POP PUSH2 0x3D7 JUMP JUMPDEST POP DUP3 SWAP8 POP DUP8 SWAP6 POP POP POP POP POP POP SWAP3 SWAP2 POP POP JUMP JUMPDEST PUSH1 0x0 PUSH1 0x20 DUP3 ADD SWAP1 POP DUP2 DUP2 SUB PUSH1 0x0 DUP4 ADD MSTORE PUSH2 0x43B DUP2 DUP5 PUSH2 0x3AC JUMP JUMPDEST SWAP1 POP SWAP3 SWAP2 POP POP JUMP JUMPDEST PUSH1 0x0 PUSH1 0x40 MLOAD SWAP1 POP SWAP1 JUMP JUMPDEST PUSH1 0x0 DUP1 REVERT JUMPDEST PUSH1 0x0 DUP1 REVERT JUMPDEST PUSH2 0x460 DUP2 PUSH2 0x308 JUMP JUMPDEST DUP2 EQ PUSH2 0x46B JUMPI PUSH1 0x0 DUP1 REVERT JUMPDEST POP JUMP JUMPDEST PUSH1 0x0 DUP2 CALLDATALOAD SWAP1 POP PUSH2 0x47D DUP2 PUSH2 0x457 JUMP JUMPDEST SWAP3 SWAP2 POP POP JUMP JUMPDEST PUSH1 0x0 DUP1 REVERT JUMPDEST PUSH1 0x0 DUP1 REVERT JUMPDEST PUSH32 0x4E487B7100000000000000000000000000000000000000000000000000000000 PUSH1 0x0 MSTORE PUSH1 0x41 PUSH1 0x4 MSTORE PUSH1 0x24 PUSH1 0x0 REVERT JUMPDEST PUSH2 0x4C5 DUP3 PUSH2 0x2BE JUMP JUMPDEST DUP2 ADD DUP2 DUP2 LT PUSH8 0xFFFFFFFFFFFFFFFF DUP3 GT OR ISZERO PUSH2 0x4E4 JUMPI PUSH2 0x4E3 PUSH2 0x48D JUMP JUMPDEST JUMPDEST DUP1 PUSH1 0x40 MSTORE POP POP POP JUMP JUMPDEST PUSH1 0x0 PUSH2 0x4F7 PUSH2 0x443 JUMP JUMPDEST SWAP1 POP PUSH2 0x503 DUP3 DUP3 PUSH2 0x4BC JUMP JUMPDEST SWAP2 SWAP1 POP JUMP JUMPDEST PUSH1 0x0 PUSH8 0xFFFFFFFFFFFFFFFF DUP3 GT ISZERO PUSH2 0x523 JUMPI PUSH2 0x522 PUSH2 0x48D JUMP JUMPDEST JUMPDEST PUSH2 0x52C DUP3 PUSH2 0x2BE JUMP JUMPDEST SWAP1 POP PUSH1 0x20 DUP2 ADD SWAP1 POP SWAP2 SWAP1 POP JUMP JUMPDEST DUP3 DUP2 DUP4 CALLDATACOPY PUSH1 0x0 DUP4 DUP4 ADD MSTORE POP POP POP JUMP JUMPDEST PUSH1 0x0 PUSH2 0x55B PUSH2 0x556 DUP5 PUSH2 0x508 JUMP JUMPDEST PUSH2 0x4ED JUMP JUMPDEST SWAP1 POP DUP3 DUP2 MSTORE PUSH1 0x20 DUP2 ADD DUP5 DUP5 DUP5 ADD GT ISZERO PUSH2 0x577 JUMPI PUSH2 0x576 PUSH2 0x488 JUMP JUMPDEST JUMPDEST PUSH2 0x582 DUP5 DUP3 DUP6 PUSH2 0x539 JUMP JUMPDEST POP SWAP4 SWAP3 POP POP POP JUMP JUMPDEST PUSH1 0x0 DUP3 PUSH1 0x1F DUP4 ADD SLT PUSH2 0x59F JUMPI PUSH2 0x59E PUSH2 0x483 JUMP JUMPDEST JUMPDEST DUP2 CALLDATALOAD PUSH2 0x5AF DUP5 DUP3 PUSH1 0x20 DUP7 ADD PUSH2 0x548 JUMP JUMPDEST SWAP2 POP POP SWAP3 SWAP2 POP POP JUMP JUMPDEST PUSH1 0x0 DUP1 PUSH1 0x0 DUP1 PUSH1 0x80 DUP6 DUP8 SUB SLT ISZERO PUSH2 0x5D2 JUMPI PUSH2 0x5D1 PUSH2 0x44D JUMP JUMPDEST JUMPDEST PUSH1 0x0 PUSH2 0x5E0 DUP8 DUP3 DUP9 ADD PUSH2 0x46E JUMP JUMPDEST SWAP5 POP POP PUSH1 0x20 DUP6 ADD CALLDATALOAD PUSH8 0xFFFFFFFFFFFFFFFF DUP2 GT ISZERO PUSH2 0x601 JUMPI PUSH2 0x600 PUSH2 0x452 JUMP JUMPDEST JUMPDEST PUSH2 0x60D DUP8 DUP3 DUP9 ADD PUSH2 0x58A JUMP JUMPDEST SWAP4 POP POP PUSH1 0x40 DUP6 ADD CALLDATALOAD PUSH8 0xFFFFFFFFFFFFFFFF DUP2 GT ISZERO PUSH2 0x62E JUMPI PUSH2 0x62D PUSH2 0x452 JUMP JUMPDEST JUMPDEST PUSH2 0x63A DUP8 DUP3 DUP9 ADD PUSH2 0x58A JUMP JUMPDEST SWAP3 POP POP PUSH1 0x60 PUSH2 0x64B DUP8 DUP3 DUP9 ADD PUSH2 0x46E JUMP JUMPDEST SWAP2 POP POP SWAP3 SWAP6 SWAP2 SWAP5 POP SWAP3 POP JUMP JUMPDEST PUSH1 0x0 DUP3 DUP3 MSTORE PUSH1 0x20 DUP3 ADD SWAP1 POP SWAP3 SWAP2 POP POP JUMP JUMPDEST PUSH32 0x596F7520617265206E6F742061646D696E212100000000000000000000000000 PUSH1 0x0 DUP3 ADD MSTORE POP JUMP JUMPDEST PUSH1 0x0 PUSH2 0x69E PUSH1 0x13 DUP4 PUSH2 0x657 JUMP JUMPDEST SWAP2 POP PUSH2 0x6A9 DUP3 PUSH2 0x668 JUMP JUMPDEST PUSH1 0x20 DUP3 ADD SWAP1 POP SWAP2 SWAP1 POP JUMP JUMPDEST PUSH1 0x0 PUSH1 0x20 DUP3 ADD SWAP1 POP DUP2 DUP2 SUB PUSH1 0x0 DUP4 ADD MSTORE PUSH2 0x6CD DUP2 PUSH2 0x691 JUMP JUMPDEST SWAP1 POP SWAP2 SWAP1 POP JUMP JUMPDEST PUSH32 0x4E487B7100000000000000000000000000000000000000000000000000000000 PUSH1 0x0 MSTORE PUSH1 0x32 PUSH1 0x4 MSTORE PUSH1 0x24 PUSH1 0x0 REVERT JUMPDEST PUSH32 0x53747564656E7420416C72656164792045786973747300000000000000000000 PUSH1 0x0 DUP3 ADD MSTORE POP JUMP JUMPDEST PUSH1 0x0 PUSH2 0x739 PUSH1 0x16 DUP4 PUSH2 0x657 JUMP JUMPDEST SWAP2 POP PUSH2 0x744 DUP3 PUSH2 0x703 JUMP JUMPDEST PUSH1 0x20 DUP3 ADD SWAP1 POP SWAP2 SWAP1 POP JUMP JUMPDEST PUSH1 0x0 PUSH1 0x20 DUP3 ADD SWAP1 POP DUP2 DUP2 SUB PUSH1 0x0 DUP4 ADD MSTORE PUSH2 0x768 DUP2 PUSH2 0x72C JUMP JUMPDEST SWAP1 POP SWAP2 SWAP1 POP JUMP JUMPDEST PUSH32 0x4E487B7100000000000000000000000000000000000000000000000000000000 PUSH1 0x0 MSTORE PUSH1 0x22 PUSH1 0x4 MSTORE PUSH1 0x24 PUSH1 0x0 REVERT JUMPDEST PUSH1 0x0 PUSH1 0x2 DUP3 DIV SWAP1 POP PUSH1 0x1 DUP3 AND DUP1 PUSH2 0x7B6 JUMPI PUSH1 0x7F DUP3 AND SWAP2 POP JUMPDEST PUSH1 0x20 DUP3 LT DUP2 SUB PUSH2 0x7C9 JUMPI PUSH2 0x7C8 PUSH2 0x76F JUMP JUMPDEST JUMPDEST POP SWAP2 SWAP1 POP JUMP JUMPDEST PUSH1 0x0 DUP2 SWAP1 POP DUP2 PUSH1 0x0 MSTORE PUSH1 0x20 PUSH1 0x0 KECCAK256 SWAP1 POP SWAP2 SWAP1 POP JUMP JUMPDEST PUSH1 0x0 PUSH1 0x20 PUSH1 0x1F DUP4 ADD DIV SWAP1 POP SWAP2 SWAP1 POP JUMP JUMPDEST PUSH1 0x0 DUP3 DUP3 SHL SWAP1 POP SWAP3 SWAP2 POP POP JUMP JUMPDEST PUSH1 0x0 PUSH1 0x8 DUP4 MUL PUSH2 0x831 PUSH32 0xFFFFFFFFFFFFFFFFFFFFFFFFFFFFFFFFFFFFFFFFFFFFFFFFFFFFFFFFFFFFFFFF DUP3 PUSH2 0x7F4 JUMP JUMPDEST PUSH2 0x83B DUP7 DUP4 PUSH2 0x7F4 JUMP JUMPDEST SWAP6 POP DUP1 NOT DUP5 AND SWAP4 POP DUP1 DUP7 AND DUP5 OR SWAP3 POP POP POP SWAP4 SWAP3 POP POP POP JUMP JUMPDEST PUSH1 0x0 DUP2 SWAP1 POP SWAP2 SWAP1 POP JUMP JUMPDEST PUSH1 0x0 PUSH2 0x878 PUSH2 0x873 PUSH2 0x86E DUP5 PUSH2 0x308 JUMP JUMPDEST PUSH2 0x853 JUMP JUMPDEST PUSH2 0x308 JUMP JUMPDEST SWAP1 POP SWAP2 SWAP1 POP JUMP JUMPDEST PUSH1 0x0 DUP2 SWAP1 POP SWAP2 SWAP1 POP JUMP JUMPDEST PUSH2 0x892 DUP4 PUSH2 0x85D JUMP JUMPDEST PUSH2 0x8A6 PUSH2 0x89E DUP3 PUSH2 0x87F JUMP JUMPDEST DUP5 DUP5 SLOAD PUSH2 0x801 JUMP JUMPDEST DUP3 SSTORE POP POP POP POP JUMP JUMPDEST PUSH1 0x0 SWAP1 JUMP JUMPDEST PUSH2 0x8BB PUSH2 0x8AE JUMP JUMPDEST PUSH2 0x8C6 DUP2 DUP5 DUP5 PUSH2 0x889 JUMP JUMPDEST POP POP POP JUMP JUMPDEST JUMPDEST DUP2 DUP2 LT ISZERO PUSH2 0x8EA JUMPI PUSH2 0x8DF PUSH1 0x0 DUP3 PUSH2 0x8B3 JUMP JUMPDEST PUSH1 0x1 DUP2 ADD SWAP1 POP PUSH2 0x8CC JUMP JUMPDEST POP POP JUMP JUMPDEST PUSH1 0x1F DUP3 GT ISZERO PUSH2 0x92F JUMPI PUSH2 0x900 DUP2 PUSH2 0x7CF JUMP JUMPDEST PUSH2 0x909 DUP5 PUSH2 0x7E4 JUMP JUMPDEST DUP2 ADD PUSH1 0x20 DUP6 LT ISZERO PUSH2 0x918 JUMPI DUP2 SWAP1 POP JUMPDEST PUSH2 0x92C PUSH2 0x924 DUP6 PUSH2 0x7E4 JUMP JUMPDEST DUP4 ADD DUP3 PUSH2 0x8CB JUMP JUMPDEST POP POP JUMPDEST POP POP POP JUMP JUMPDEST PUSH1 0x0 DUP3 DUP3 SHR SWAP1 POP SWAP3 SWAP2 POP POP JUMP JUMPDEST PUSH1 0x0 PUSH2 0x952 PUSH1 0x0 NOT DUP5 PUSH1 0x8 MUL PUSH2 0x934 JUMP JUMPDEST NOT DUP1 DUP4 AND SWAP2 POP POP SWAP3 SWAP2 POP POP JUMP JUMPDEST PUSH1 0x0 PUSH2 0x96B DUP4 DUP4 PUSH2 0x941 JUMP JUMPDEST SWAP2 POP DUP3 PUSH1 0x2 MUL DUP3 OR SWAP1 POP SWAP3 SWAP2 POP POP JUMP JUMPDEST PUSH2 0x984 DUP3 PUSH2 0x278 JUMP JUMPDEST PUSH8 0xFFFFFFFFFFFFFFFF DUP2 GT ISZERO PUSH2 0x99D JUMPI PUSH2 0x99C PUSH2 0x48D JUMP JUMPDEST JUMPDEST PUSH2 0x9A7 DUP3 SLOAD PUSH2 0x79E JUMP JUMPDEST PUSH2 0x9B2 DUP3 DUP3 DUP6 PUSH2 0x8EE JUMP JUMPDEST PUSH1 0x0 PUSH1 0x20 SWAP1 POP PUSH1 0x1F DUP4 GT PUSH1 0x1 DUP2 EQ PUSH2 0x9E5 JUMPI PUSH1 0x0 DUP5 ISZERO PUSH2 0x9D3 JUMPI DUP3 DUP8 ADD MLOAD SWAP1 POP JUMPDEST PUSH2 0x9DD DUP6 DUP3 PUSH2 0x95F JUMP JUMPDEST DUP7 SSTORE POP PUSH2 0xA45 JUMP JUMPDEST PUSH1 0x1F NOT DUP5 AND PUSH2 0x9F3 DUP7 PUSH2 0x7CF JUMP JUMPDEST PUSH1 0x0 JUMPDEST DUP3 DUP2 LT ISZERO PUSH2 0xA1B JUMPI DUP5 DUP10 ADD MLOAD DUP3 SSTORE PUSH1 0x1 DUP3 ADD SWAP2 POP PUSH1 0x20 DUP6 ADD SWAP5 POP PUSH1 0x20 DUP2 ADD SWAP1 POP PUSH2 0x9F6 JUMP JUMPDEST DUP7 DUP4 LT ISZERO PUSH2 0xA38 JUMPI DUP5 DUP10 ADD MLOAD PUSH2 0xA34 PUSH1 0x1F DUP10 AND DUP3 PUSH2 0x941 JUMP JUMPDEST DUP4 SSTORE POP JUMPDEST PUSH1 0x1 PUSH1 0x2 DUP9 MUL ADD DUP9 SSTORE POP POP POP JUMPDEST POP POP POP POP POP POP JUMP JUMPDEST PUSH2 0xA56 DUP2 PUSH2 0x308 JUMP JUMPDEST DUP3 MSTORE POP POP JUMP JUMPDEST PUSH1 0x0 PUSH1 0x20 DUP3 ADD SWAP1 POP PUSH2 0xA71 PUSH1 0x0 DUP4 ADD DUP5 PUSH2 0xA4D JUMP JUMPDEST SWAP3 SWAP2 POP POP JUMP INVALID LOG2 PUSH5 0x6970667358 0x22 SLT KECCAK256 PUSH2 0x5F65 MULMOD PUSH7 0x832E456439FA0C ADDMOD 0xE9 0xE5 SWAP15 0xD4 MOD PUSH12 0x78F64D106D6FBB8830EE994E 0xAD PUSH5 0x736F6C6343 STOP ADDMOD SLT STOP CALLER "
		},
		"gasEstimates": {
			"creation": {
				"codeDepositCost": "546600",
				"executionCost": "24847",
				"totalCost": "571447"
			},
			"external": {
				"addStudent(uint256,string,string,uint256)": "infinite",
				"showAllStudents()": "infinite"
			}
		},
		"methodIdentifiers": {
			"addStudent(uint256,string,string,uint256)": "531c7c32",
			"showAllStudents()": "3630a455"
		}
	},
	"abi": [
		{
			"inputs": [],
			"stateMutability": "nonpayable",
			"type": "constructor"
		},
		{
			"anonymous": false,
			"inputs": [
				{
					"indexed": false,
					"internalType": "uint256",
					"name": "timestamp",
					"type": "uint256"
				}
			],
			"name": "StudentAdded",
			"type": "event"
		},
		{
			"inputs": [
				{
					"internalType": "uint256",
					"name": "id",
					"type": "uint256"
				},
				{
					"internalType": "string",
					"name": "name",
					"type": "string"
				},
				{
					"internalType": "string",
					"name": "grade",
					"type": "string"
				},
				{
					"internalType": "uint256",
					"name": "batch",
					"type": "uint256"
				}
			],
			"name": "addStudent",
			"outputs": [],
			"stateMutability": "nonpayable",
			"type": "function"
		},
		{
			"inputs": [],
			"name": "showAllStudents",
			"outputs": [
				{
					"components": [
						{
							"internalType": "string",
							"name": "studentName",
							"type": "string"
						},
						{
							"internalType": "uint256",
							"name": "studentId",
							"type": "uint256"
						},
						{
							"internalType": "string",
							"name": "grade",
							"type": "string"
						},
						{
							"internalType": "uint256",
							"name": "batch",
							"type": "uint256"
						}
					],
					"internalType": "struct SchoolManagement.StudentInformation[]",
					"name": "student",
					"type": "tuple[]"
				}
			],
			"stateMutability": "view",
			"type": "function"
		}
	]
}